{
  "_format": "hh-sol-artifact-1",
  "contractName": "GlobalPayment",
  "sourceName": "contracts/GlobalPayment.sol",
  "abi": [
    {
      "inputs": [],
      "stateMutability": "nonpayable",
      "type": "constructor"
    },
    {
      "anonymous": false,
      "inputs": [
        {
          "indexed": false,
          "internalType": "string",
          "name": "link",
          "type": "string"
        },
        {
          "indexed": false,
          "internalType": "address",
          "name": "contributor",
          "type": "address"
        },
        {
          "indexed": false,
          "internalType": "uint256",
          "name": "amount",
          "type": "uint256"
        }
      ],
      "name": "ContributionAdded",
      "type": "event"
    },
    {
      "anonymous": false,
      "inputs": [
        {
          "indexed": false,
          "internalType": "string",
          "name": "link",
          "type": "string"
        },
        {
          "indexed": false,
          "internalType": "address",
          "name": "creator",
          "type": "address"
        },
        {
          "indexed": false,
          "internalType": "uint256",
          "name": "amount",
          "type": "uint256"
        }
      ],
      "name": "FixedPaymentLinkCreated",
      "type": "event"
    },
    {
      "anonymous": false,
      "inputs": [
        {
          "indexed": false,
          "internalType": "string",
          "name": "link",
          "type": "string"
        },
        {
          "indexed": false,
          "internalType": "address",
          "name": "creator",
          "type": "address"
        }
      ],
      "name": "GlobalPaymentLinkCreated",
      "type": "event"
    },
    {
      "inputs": [
        {
          "internalType": "string",
          "name": "linkID",
          "type": "string"
        }
      ],
      "name": "PayFixedPaymentLink",
      "outputs": [],
      "stateMutability": "nonpayable",
      "type": "function"
    },
    {
      "inputs": [
        {
          "internalType": "string",
          "name": "linkID",
          "type": "string"
        },
        {
          "internalType": "uint256",
          "name": "_amount",
          "type": "uint256"
        }
      ],
      "name": "contributeToGlobalPaymentLink",
      "outputs": [],
      "stateMutability": "nonpayable",
      "type": "function"
    },
    {
      "inputs": [
        {
          "internalType": "string",
          "name": "linkID",
          "type": "string"
        },
        {
          "internalType": "uint256",
          "name": "_amount",
          "type": "uint256"
        }
      ],
      "name": "createFixedPaymentLink",
      "outputs": [],
      "stateMutability": "nonpayable",
      "type": "function"
    },
    {
      "inputs": [
        {
          "internalType": "string",
          "name": "linkID",
          "type": "string"
        }
      ],
      "name": "createGlobalPaymentLink",
      "outputs": [],
      "stateMutability": "nonpayable",
      "type": "function"
    },
    {
      "inputs": [
        {
          "internalType": "string",
          "name": "",
          "type": "string"
        }
      ],
      "name": "fixedPaymentLinks",
      "outputs": [
        {
          "internalType": "address",
          "name": "creator",
          "type": "address"
        },
        {
          "internalType": "string",
          "name": "link",
          "type": "string"
        },
        {
          "internalType": "uint256",
          "name": "amount",
          "type": "uint256"
        },
        {
          "internalType": "bool",
          "name": "paid",
          "type": "bool"
        }
      ],
      "stateMutability": "view",
      "type": "function"
    },
    {
      "inputs": [
        {
          "internalType": "string",
          "name": "",
          "type": "string"
        }
      ],
      "name": "globalPaymentLinks",
      "outputs": [
        {
          "internalType": "address",
          "name": "creator",
          "type": "address"
        },
        {
          "internalType": "string",
          "name": "link",
          "type": "string"
        }
      ],
      "stateMutability": "view",
      "type": "function"
    }
  ],
  "bytecode": "0x60c060405273874069fa1eb16d44d622f2e0ca25eea172369bc173ffffffffffffffffffffffffffffffffffffffff1660a09073ffffffffffffffffffffffffffffffffffffffff1681525034801561005757600080fd5b503373ffffffffffffffffffffffffffffffffffffffff1660808173ffffffffffffffffffffffffffffffffffffffff168152505060805160a0516115ea6100db6000396000818161014601528181610221015281816104cb015281816105a60152818161080f015261097101526000818161025e01526105e301526115ea6000f3fe608060405234801561001057600080fd5b50600436106100625760003560e01c806319ab42781461006757806376fd60a6146100835780637ef09744146100b6578063b1af374b146100d2578063e7d92eb2146100ee578063ee0231da1461010a575b600080fd5b610081600480360381019061007c9190610ccc565b61013b565b005b61009d60048036038101906100989190610ccc565b6103cd565b6040516100ad9493929190610e09565b60405180910390f35b6100d060048036038101906100cb9190610e81565b6104c8565b005b6100ec60048036038101906100e79190610ccc565b61079e565b005b61010860048036038101906101039190610e81565b61096f565b005b610124600480360381019061011f9190610ccc565b610a90565b604051610132929190610edd565b60405180910390f35b671bc16d674ec800007f000000000000000000000000000000000000000000000000000000000000000073ffffffffffffffffffffffffffffffffffffffff166370a08231336040518263ffffffff1660e01b815260040161019d9190610f0d565b602060405180830381865afa1580156101ba573d6000803e3d6000fd5b505050506040513d601f19601f820116820180604052508101906101de9190610f3d565b101561021f576040517f08c379a000000000000000000000000000000000000000000000000000000000815260040161021690610fb6565b60405180910390fd5b7f000000000000000000000000000000000000000000000000000000000000000073ffffffffffffffffffffffffffffffffffffffff166323b872dd337f0000000000000000000000000000000000000000000000000000000000000000671bc16d674ec800006040518463ffffffff1660e01b81526004016102a49392919061101b565b6020604051808303816000875af11580156102c3573d6000803e3d6000fd5b505050506040513d601f19601f820116820180604052508101906102e7919061107e565b5060405180604001604052803373ffffffffffffffffffffffffffffffffffffffff1681526020018281525060008260405161032391906110e7565b908152602001604051809103902060008201518160000160006101000a81548173ffffffffffffffffffffffffffffffffffffffff021916908373ffffffffffffffffffffffffffffffffffffffff160217905550602082015181600101908161038d9190611300565b509050507fce358a18d026c2c06cc766e26b6c6bc050ab5c949ad908f1cb4612573b7720a481336040516103c29291906113d2565b60405180910390a150565b6001818051602081018201805184825260208301602085012081835280955050505050506000915090508060000160009054906101000a900473ffffffffffffffffffffffffffffffffffffffff169080600101805461042c9061112d565b80601f01602080910402602001604051908101604052809291908181526020018280546104589061112d565b80156104a55780601f1061047a576101008083540402835291602001916104a5565b820191906000526020600020905b81548152906001019060200180831161048857829003601f168201915b5050505050908060020154908060030160009054906101000a900460ff16905084565b807f000000000000000000000000000000000000000000000000000000000000000073ffffffffffffffffffffffffffffffffffffffff166370a08231336040518263ffffffff1660e01b81526004016105229190610f0d565b602060405180830381865afa15801561053f573d6000803e3d6000fd5b505050506040513d601f19601f820116820180604052508101906105639190610f3d565b10156105a4576040517f08c379a000000000000000000000000000000000000000000000000000000000815260040161059b90610fb6565b60405180910390fd5b7f000000000000000000000000000000000000000000000000000000000000000073ffffffffffffffffffffffffffffffffffffffff166323b872dd337f00000000000000000000000000000000000000000000000000000000000000006064600a866106119190611431565b61061b91906114a2565b6040518463ffffffff1660e01b8152600401610639939291906114d3565b6020604051808303816000875af1158015610658573d6000803e3d6000fd5b505050506040513d601f19601f8201168201806040525081019061067c919061107e565b5060405180608001604052803373ffffffffffffffffffffffffffffffffffffffff168152602001838152602001828152602001600015158152506001836040516106c791906110e7565b908152602001604051809103902060008201518160000160006101000a81548173ffffffffffffffffffffffffffffffffffffffff021916908373ffffffffffffffffffffffffffffffffffffffff16021790555060208201518160010190816107319190611300565b506040820151816002015560608201518160030160006101000a81548160ff0219169083151502179055509050507f910dde8606bd6c46c7756d27666c7558a67bcf4dd1d9e11759320b2b266c2d678233836040516107929392919061150a565b60405180910390a15050565b6001816040516107ae91906110e7565b908152602001604051809103902060030160009054906101000a900460ff161561080d576040517f08c379a000000000000000000000000000000000000000000000000000000000815260040161080490611594565b60405180910390fd5b7f000000000000000000000000000000000000000000000000000000000000000073ffffffffffffffffffffffffffffffffffffffff166323b872dd3360018460405161085a91906110e7565b908152602001604051809103902060000160009054906101000a900473ffffffffffffffffffffffffffffffffffffffff1660018560405161089c91906110e7565b9081526020016040518091039020600201546040518463ffffffff1660e01b81526004016108cc939291906114d3565b6020604051808303816000875af11580156108eb573d6000803e3d6000fd5b505050506040513d601f19601f8201168201806040525081019061090f919061107e565b507f17c364965a637c779007573304a4c8885e05750cf1997f7d4accf4a7ca1186ed813360018460405161094391906110e7565b9081526020016040518091039020600201546040516109649392919061150a565b60405180910390a150565b7f000000000000000000000000000000000000000000000000000000000000000073ffffffffffffffffffffffffffffffffffffffff166323b872dd336000856040516109bc91906110e7565b908152602001604051809103902060000160009054906101000a900473ffffffffffffffffffffffffffffffffffffffff16846040518463ffffffff1660e01b8152600401610a0d939291906114d3565b6020604051808303816000875af1158015610a2c573d6000803e3d6000fd5b505050506040513d601f19601f82011682018060405250810190610a50919061107e565b507f17c364965a637c779007573304a4c8885e05750cf1997f7d4accf4a7ca1186ed823383604051610a849392919061150a565b60405180910390a15050565b6000818051602081018201805184825260208301602085012081835280955050505050506000915090508060000160009054906101000a900473ffffffffffffffffffffffffffffffffffffffff1690806001018054610aef9061112d565b80601f0160208091040260200160405190810160405280929190818152602001828054610b1b9061112d565b8015610b685780601f10610b3d57610100808354040283529160200191610b68565b820191906000526020600020905b815481529060010190602001808311610b4b57829003601f168201915b5050505050905082565b6000604051905090565b600080fd5b600080fd5b600080fd5b600080fd5b6000601f19601f8301169050919050565b7f4e487b7100000000000000000000000000000000000000000000000000000000600052604160045260246000fd5b610bd982610b90565b810181811067ffffffffffffffff82111715610bf857610bf7610ba1565b5b80604052505050565b6000610c0b610b72565b9050610c178282610bd0565b919050565b600067ffffffffffffffff821115610c3757610c36610ba1565b5b610c4082610b90565b9050602081019050919050565b82818337600083830152505050565b6000610c6f610c6a84610c1c565b610c01565b905082815260208101848484011115610c8b57610c8a610b8b565b5b610c96848285610c4d565b509392505050565b600082601f830112610cb357610cb2610b86565b5b8135610cc3848260208601610c5c565b91505092915050565b600060208284031215610ce257610ce1610b7c565b5b600082013567ffffffffffffffff811115610d0057610cff610b81565b5b610d0c84828501610c9e565b91505092915050565b600073ffffffffffffffffffffffffffffffffffffffff82169050919050565b6000610d4082610d15565b9050919050565b610d5081610d35565b82525050565b600081519050919050565b600082825260208201905092915050565b60005b83811015610d90578082015181840152602081019050610d75565b60008484015250505050565b6000610da782610d56565b610db18185610d61565b9350610dc1818560208601610d72565b610dca81610b90565b840191505092915050565b6000819050919050565b610de881610dd5565b82525050565b60008115159050919050565b610e0381610dee565b82525050565b6000608082019050610e1e6000830187610d47565b8181036020830152610e308186610d9c565b9050610e3f6040830185610ddf565b610e4c6060830184610dfa565b95945050505050565b610e5e81610dd5565b8114610e6957600080fd5b50565b600081359050610e7b81610e55565b92915050565b60008060408385031215610e9857610e97610b7c565b5b600083013567ffffffffffffffff811115610eb657610eb5610b81565b5b610ec285828601610c9e565b9250506020610ed385828601610e6c565b9150509250929050565b6000604082019050610ef26000830185610d47565b8181036020830152610f048184610d9c565b90509392505050565b6000602082019050610f226000830184610d47565b92915050565b600081519050610f3781610e55565b92915050565b600060208284031215610f5357610f52610b7c565b5b6000610f6184828501610f28565b91505092915050565b7f496e73756666696369656e742042616c616e6365000000000000000000000000600082015250565b6000610fa0601483610d61565b9150610fab82610f6a565b602082019050919050565b60006020820190508181036000830152610fcf81610f93565b9050919050565b6000819050919050565b6000819050919050565b6000611005611000610ffb84610fd6565b610fe0565b610dd5565b9050919050565b61101581610fea565b82525050565b60006060820190506110306000830186610d47565b61103d6020830185610d47565b61104a604083018461100c565b949350505050565b61105b81610dee565b811461106657600080fd5b50565b60008151905061107881611052565b92915050565b60006020828403121561109457611093610b7c565b5b60006110a284828501611069565b91505092915050565b600081905092915050565b60006110c182610d56565b6110cb81856110ab565b93506110db818560208601610d72565b80840191505092915050565b60006110f382846110b6565b915081905092915050565b7f4e487b7100000000000000000000000000000000000000000000000000000000600052602260045260246000fd5b6000600282049050600182168061114557607f821691505b602082108103611158576111576110fe565b5b50919050565b60008190508160005260206000209050919050565b60006020601f8301049050919050565b600082821b905092915050565b6000600883026111c07fffffffffffffffffffffffffffffffffffffffffffffffffffffffffffffffff82611183565b6111ca8683611183565b95508019841693508086168417925050509392505050565b60006111fd6111f86111f384610dd5565b610fe0565b610dd5565b9050919050565b6000819050919050565b611217836111e2565b61122b61122382611204565b848454611190565b825550505050565b600090565b611240611233565b61124b81848461120e565b505050565b5b8181101561126f57611264600082611238565b600181019050611251565b5050565b601f8211156112b4576112858161115e565b61128e84611173565b8101602085101561129d578190505b6112b16112a985611173565b830182611250565b50505b505050565b600082821c905092915050565b60006112d7600019846008026112b9565b1980831691505092915050565b60006112f083836112c6565b9150826002028217905092915050565b61130982610d56565b67ffffffffffffffff81111561132257611321610ba1565b5b61132c825461112d565b611337828285611273565b600060209050601f83116001811461136a5760008415611358578287015190505b61136285826112e4565b8655506113ca565b601f1984166113788661115e565b60005b828110156113a05784890151825560018201915060208501945060208101905061137b565b868310156113bd57848901516113b9601f8916826112c6565b8355505b6001600288020188555050505b505050505050565b600060408201905081810360008301526113ec8185610d9c565b90506113fb6020830184610d47565b9392505050565b7f4e487b7100000000000000000000000000000000000000000000000000000000600052601160045260246000fd5b600061143c82610dd5565b915061144783610dd5565b925082820261145581610dd5565b9150828204841483151761146c5761146b611402565b5b5092915050565b7f4e487b7100000000000000000000000000000000000000000000000000000000600052601260045260246000fd5b60006114ad82610dd5565b91506114b883610dd5565b9250826114c8576114c7611473565b5b828204905092915050565b60006060820190506114e86000830186610d47565b6114f56020830185610d47565b6115026040830184610ddf565b949350505050565b600060608201905081810360008301526115248186610d9c565b90506115336020830185610d47565b6115406040830184610ddf565b949350505050565b7f4c696e6b20616c72656164792070616964000000000000000000000000000000600082015250565b600061157e601183610d61565b915061158982611548565b602082019050919050565b600060208201905081810360008301526115ad81611571565b905091905056fea2646970667358221220380ebf5a125d7887bf88bf69faaa593b00d63edb6d63b6f126b6f2d9abf1a85e64736f6c63430008110033",
  "linkReferences": {},
  "deployedLinkReferences": {}
}