{
  "_format": "hh-sol-artifact-1",
  "contractName": "PayLink",
  "sourceName": "contracts/PayLink.sol",
  "abi": [
    {
      "inputs": [],
      "name": "InvalidInitialization",
      "type": "error"
    },
    {
      "inputs": [],
      "name": "NotInitializing",
      "type": "error"
    },
    {
      "inputs": [],
      "name": "ReentrancyGuardReentrantCall",
      "type": "error"
    },
    {
      "anonymous": false,
      "inputs": [
        {
          "indexed": false,
          "internalType": "string",
          "name": "link",
          "type": "string"
        },
        {
          "indexed": false,
          "internalType": "address",
          "name": "contributor",
          "type": "address"
        },
        {
          "indexed": false,
          "internalType": "uint256",
          "name": "amount",
          "type": "uint256"
        }
      ],
      "name": "ContributionAdded",
      "type": "event"
    },
    {
      "anonymous": false,
      "inputs": [
        {
          "indexed": false,
          "internalType": "string",
          "name": "link",
          "type": "string"
        },
        {
          "indexed": false,
          "internalType": "address",
          "name": "creator",
          "type": "address"
        },
        {
          "indexed": false,
          "internalType": "uint256",
          "name": "amount",
          "type": "uint256"
        }
      ],
      "name": "FixedPaymentLinkCreated",
      "type": "event"
    },
    {
      "anonymous": false,
      "inputs": [
        {
          "indexed": false,
          "internalType": "string",
          "name": "link",
          "type": "string"
        },
        {
          "indexed": false,
          "internalType": "address",
          "name": "creator",
          "type": "address"
        }
      ],
      "name": "GlobalPaymentLinkCreated",
      "type": "event"
    },
    {
      "anonymous": false,
      "inputs": [
        {
          "indexed": false,
          "internalType": "uint64",
          "name": "version",
          "type": "uint64"
        }
      ],
      "name": "Initialized",
      "type": "event"
    },
    {
      "anonymous": false,
      "inputs": [
        {
          "indexed": false,
          "internalType": "string",
          "name": "invoiceId",
          "type": "string"
        },
        {
          "indexed": false,
          "internalType": "string",
          "name": "productId",
          "type": "string"
        },
        {
          "indexed": false,
          "internalType": "address",
          "name": "from",
          "type": "address"
        },
        {
          "indexed": false,
          "internalType": "address",
          "name": "client",
          "type": "address"
        },
        {
          "indexed": false,
          "internalType": "uint256",
          "name": "amount",
          "type": "uint256"
        },
        {
          "indexed": false,
          "internalType": "bool",
          "name": "paid",
          "type": "bool"
        }
      ],
      "name": "InvoiceCreated",
      "type": "event"
    },
    {
      "anonymous": false,
      "inputs": [
        {
          "indexed": false,
          "internalType": "string",
          "name": "link",
          "type": "string"
        },
        {
          "indexed": false,
          "internalType": "address",
          "name": "client",
          "type": "address"
        },
        {
          "indexed": false,
          "internalType": "uint256",
          "name": "amount",
          "type": "uint256"
        },
        {
          "indexed": false,
          "internalType": "bool",
          "name": "paid",
          "type": "bool"
        }
      ],
      "name": "PaidFixedPayment",
      "type": "event"
    },
    {
      "anonymous": false,
      "inputs": [
        {
          "indexed": false,
          "internalType": "string",
          "name": "invoiceId",
          "type": "string"
        },
        {
          "indexed": false,
          "internalType": "uint256",
          "name": "amount",
          "type": "uint256"
        },
        {
          "indexed": false,
          "internalType": "bool",
          "name": "paid",
          "type": "bool"
        }
      ],
      "name": "PaidInvoice",
      "type": "event"
    },
    {
      "inputs": [
        {
          "internalType": "string",
          "name": "linkID",
          "type": "string"
        },
        {
          "internalType": "uint256",
          "name": "_amount",
          "type": "uint256"
        }
      ],
      "name": "contributeToGlobalPaymentLink",
      "outputs": [],
      "stateMutability": "nonpayable",
      "type": "function"
    },
    {
      "inputs": [
        {
          "internalType": "string",
          "name": "linkID",
          "type": "string"
        },
        {
          "internalType": "uint256",
          "name": "_amount",
          "type": "uint256"
        }
      ],
      "name": "createFixedPaymentLink",
      "outputs": [],
      "stateMutability": "nonpayable",
      "type": "function"
    },
    {
      "inputs": [
        {
          "internalType": "string",
          "name": "linkID",
          "type": "string"
        }
      ],
      "name": "createGlobalPaymentLink",
      "outputs": [],
      "stateMutability": "nonpayable",
      "type": "function"
    },
    {
      "inputs": [
        {
          "internalType": "string",
          "name": "_invoiceId",
          "type": "string"
        },
        {
          "internalType": "string",
          "name": "_productId",
          "type": "string"
        },
        {
          "internalType": "address",
          "name": "_from",
          "type": "address"
        },
        {
          "internalType": "address",
          "name": "_client",
          "type": "address"
        },
        {
          "internalType": "uint256",
          "name": "_amount",
          "type": "uint256"
        }
      ],
      "name": "createInvoice",
      "outputs": [],
      "stateMutability": "nonpayable",
      "type": "function"
    },
    {
      "inputs": [
        {
          "internalType": "string",
          "name": "",
          "type": "string"
        }
      ],
      "name": "fixedPaymentLink",
      "outputs": [
        {
          "internalType": "address",
          "name": "creator",
          "type": "address"
        },
        {
          "internalType": "string",
          "name": "link",
          "type": "string"
        },
        {
          "internalType": "uint256",
          "name": "amount",
          "type": "uint256"
        },
        {
          "internalType": "bool",
          "name": "paid",
          "type": "bool"
        }
      ],
      "stateMutability": "view",
      "type": "function"
    },
    {
      "inputs": [
        {
          "internalType": "string",
          "name": "",
          "type": "string"
        }
      ],
      "name": "globalPaymentLink",
      "outputs": [
        {
          "internalType": "address",
          "name": "creator",
          "type": "address"
        },
        {
          "internalType": "string",
          "name": "link",
          "type": "string"
        }
      ],
      "stateMutability": "view",
      "type": "function"
    },
    {
      "inputs": [
        {
          "internalType": "address",
          "name": "_cUsdTokenAddress",
          "type": "address"
        }
      ],
      "name": "initialize",
      "outputs": [],
      "stateMutability": "nonpayable",
      "type": "function"
    },
    {
      "inputs": [
        {
          "internalType": "string",
          "name": "",
          "type": "string"
        }
      ],
      "name": "invoice",
      "outputs": [
        {
          "internalType": "string",
          "name": "invoiceId",
          "type": "string"
        },
        {
          "internalType": "string",
          "name": "productId",
          "type": "string"
        },
        {
          "internalType": "address",
          "name": "from",
          "type": "address"
        },
        {
          "internalType": "address",
          "name": "client",
          "type": "address"
        },
        {
          "internalType": "uint256",
          "name": "amount",
          "type": "uint256"
        },
        {
          "internalType": "bool",
          "name": "paid",
          "type": "bool"
        }
      ],
      "stateMutability": "view",
      "type": "function"
    },
    {
      "inputs": [
        {
          "internalType": "string",
          "name": "linkID",
          "type": "string"
        }
      ],
      "name": "payFixedPaymentLink",
      "outputs": [],
      "stateMutability": "nonpayable",
      "type": "function"
    },
    {
      "inputs": [
        {
          "internalType": "string",
          "name": "_invoiceId",
          "type": "string"
        }
      ],
      "name": "payInvoice",
      "outputs": [],
      "stateMutability": "nonpayable",
      "type": "function"
    }
  ],
  "bytecode": "0x608060405234801561001057600080fd5b5061190a806100206000396000f3fe608060405234801561001057600080fd5b50600436106100be5760003560e01c8063456eec47116100765780637ef097441161005b5780637ef0974414610183578063c4d66de814610196578063e7d92eb2146101a957600080fd5b8063456eec471461014f5780637c9495b21461017057600080fd5b806319ab4278116100a757806319ab427814610106578063359095c3146101195780633e20ca551461013c57600080fd5b80630804d5ad146100c35780630f14ed70146100d8575b600080fd5b6100d66100d1366004611398565b6101bc565b005b6100eb6100e6366004611398565b6103f4565b6040516100fd96959493929190611425565b60405180910390f35b6100d6610114366004611398565b610555565b61012c610127366004611398565b610734565b6040516100fd949392919061147b565b6100d661014a3660046114d1565b6107fe565b61016261015d366004611398565b610ae4565b6040516100fd92919061155e565b6100d661017e366004611398565b610b9e565b6100d6610191366004611580565b610dc5565b6100d66101a43660046115c5565b611026565b6100d66101b7366004611580565b6111c0565b6101c46112ab565b6003816040516101d491906115e7565b9081526040519081900360200190206003015460ff161561023c5760405162461bcd60e51b815260206004820152601160248201527f4c696e6b20616c7265616479207061696400000000000000000000000000000060448201526064015b60405180910390fd5b600160038260405161024e91906115e7565b9081526040519081900360200181206003908101805493151560ff19909416939093179092556001546001600160a01b0316916323b872dd913391906102959086906115e7565b908152604051908190036020018120546001600160a01b0316906003906102bd9087906115e7565b908152604051908190036020018120600201546001600160e01b031960e086901b1682526001600160a01b03938416600483015291909216602483015260448201526064016020604051808303816000875af1158015610321573d6000803e3d6000fd5b505050506040513d601f19601f820116820180604052508101906103459190611603565b507fe5e01de43e3517f1f07b52d30469226dcf57715be365d791aa2458ae1fbd4e38813360038460405161037991906115e7565b90815260200160405180910390206002015460038560405161039b91906115e7565b908152604051908190036020018120600301546103c09493929160ff90911690611625565b60405180910390a16103f160017f9b779b17422d0df92223018b32b4d1fa46e071723d6817e2486d003becc55f0055565b50565b805160208183018101805160048252928201919093012091528054819061041a9061165f565b80601f01602080910402602001604051908101604052809291908181526020018280546104469061165f565b80156104935780601f1061046857610100808354040283529160200191610493565b820191906000526020600020905b81548152906001019060200180831161047657829003601f168201915b5050505050908060010180546104a89061165f565b80601f01602080910402602001604051908101604052809291908181526020018280546104d49061165f565b80156105215780601f106104f657610100808354040283529160200191610521565b820191906000526020600020905b81548152906001019060200180831161050457829003601f168201915b5050505060028301546003840154600485015460059095015493946001600160a01b03928316949290911692509060ff1686565b61055d6112ab565b6001546040516370a0823160e01b8152336004820152674563918244f40000916001600160a01b0316906370a0823190602401602060405180830381865afa1580156105ad573d6000803e3d6000fd5b505050506040513d601f19601f820116820180604052508101906105d19190611699565b10156106165760405162461bcd60e51b8152602060048201526014602482015273496e73756666696369656e742042616c616e636560601b6044820152606401610233565b6001546000546040516323b872dd60e01b81523360048201526001600160a01b039182166024820152674563918244f4000060448201529116906323b872dd906064016020604051808303816000875af1158015610678573d6000803e3d6000fd5b505050506040513d601f19601f8201168201806040525081019061069c9190611603565b506040805180820182523381526020810183905290516002906106c09084906115e7565b90815260405160209181900382019020825181546001600160a01b0319166001600160a01b039091161781559082015160018201906106ff90826116fd565b509050507fce358a18d026c2c06cc766e26b6c6bc050ab5c949ad908f1cb4612573b7720a481336040516103c09291906117bd565b8051602081830181018051600382529282019190930120915280546001820180546001600160a01b03909216929161076b9061165f565b80601f01602080910402602001604051908101604052809291908181526020018280546107979061165f565b80156107e45780601f106107b9576101008083540402835291602001916107e4565b820191906000526020600020905b8154815290600101906020018083116107c757829003601f168201915b50505050600283015460039093015491929160ff16905084565b6108066112ab565b6001546040516370a0823160e01b815233600482015282916001600160a01b0316906370a0823190602401602060405180830381865afa15801561084e573d6000803e3d6000fd5b505050506040513d601f19601f820116820180604052508101906108729190611699565b10156108b75760405162461bcd60e51b8152602060048201526014602482015273496e73756666696369656e742042616c616e636560601b6044820152606401610233565b6001546000546001600160a01b03918216916323b872dd91339116600a6108df8660036117e8565b6108e99190611813565b6040516001600160e01b031960e086901b1681526001600160a01b03938416600482015292909116602483015260448201526064016020604051808303816000875af115801561093d573d6000803e3d6000fd5b505050506040513d601f19601f820116820180604052508101906109619190611603565b506040518060c00160405280868152602001858152602001846001600160a01b03168152602001836001600160a01b03168152602001828152602001600015158152506004866040516109b491906115e7565b908152604051908190036020019020815181906109d190826116fd565b50602082015160018201906109e690826116fd565b506040828101516002830180546001600160a01b039283166001600160a01b0319918216179091556060850151600385018054919093169116179055608083015160048084019190915560a0909301516005909201805492151560ff1990931692909217909155517fba3b94223c355d90d8358fc45d98e6d735d49c0df81ea9269cfe5c6d0f50e2a99187918791879187918791610a859087906115e7565b90815260405190819003602001812060050154610aac96959493929160ff90911690611425565b60405180910390a1610add60017f9b779b17422d0df92223018b32b4d1fa46e071723d6817e2486d003becc55f0055565b5050505050565b8051602081830181018051600282529282019190930120915280546001820180546001600160a01b039092169291610b1b9061165f565b80601f0160208091040260200160405190810160405280929190818152602001828054610b479061165f565b8015610b945780601f10610b6957610100808354040283529160200191610b94565b820191906000526020600020905b815481529060010190602001808311610b7757829003601f168201915b5050505050905082565b610ba66112ab565b600481604051610bb691906115e7565b9081526040519081900360200190206005015460ff1615610c195760405162461bcd60e51b815260206004820152601460248201527f496e766f69636520616c726561647920706169640000000000000000000000006044820152606401610233565b6001600482604051610c2b91906115e7565b908152604051908190036020018120600501805492151560ff19909316929092179091556001546001600160a01b0316906323b872dd903390600490610c729086906115e7565b908152604051908190036020018120600201546001600160a01b031690600490610c9d9087906115e7565b9081526020016040518091039020600401546040518463ffffffff1660e01b8152600401610cec939291906001600160a01b039384168152919092166020820152604081019190915260600190565b6020604051808303816000875af1158015610d0b573d6000803e3d6000fd5b505050506040513d601f19601f82011682018060405250810190610d2f9190611603565b507ff56902f11d006d37eaffa35acc4966c7f90defbc02af3c2a3fcb41885522231d600482604051610d6191906115e7565b90815260405190819003602001812090600490610d7f9085906115e7565b908152602001604051809103902060040154600484604051610da191906115e7565b908152604051908190036020018120600501546103c093929160ff90911690611835565b610dcd6112ab565b6001546040516370a0823160e01b815233600482015282916001600160a01b0316906370a0823190602401602060405180830381865afa158015610e15573d6000803e3d6000fd5b505050506040513d601f19601f82011682018060405250810190610e399190611699565b1015610e7e5760405162461bcd60e51b8152602060048201526014602482015273496e73756666696369656e742042616c616e636560601b6044820152606401610233565b6001546000546001600160a01b03918216916323b872dd913391166064610ea68660036117e8565b610eb09190611813565b6040516001600160e01b031960e086901b1681526001600160a01b03938416600482015292909116602483015260448201526064016020604051808303816000875af1158015610f04573d6000803e3d6000fd5b505050506040513d601f19601f82011682018060405250810190610f289190611603565b506040805160808101825233815260208101849052808201839052600060608201529051600390610f5a9085906115e7565b90815260405160209181900382019020825181546001600160a01b0319166001600160a01b03909116178155908201516001820190610f9990826116fd565b5060408281015160028301556060909201516003909101805460ff1916911515919091179055517f910dde8606bd6c46c7756d27666c7558a67bcf4dd1d9e11759320b2b266c2d6790610ff1908490339085906118cf565b60405180910390a161102260017f9b779b17422d0df92223018b32b4d1fa46e071723d6817e2486d003becc55f0055565b5050565b7ff0c57e16840df040f15088dc2f81fe391c3923bec73e23a9662efc9c229c6a00805468010000000000000000810460ff16159067ffffffffffffffff166000811580156110715750825b905060008267ffffffffffffffff16600114801561108e5750303b155b90508115801561109c575080155b156110ba5760405163f92ee8a960e01b815260040160405180910390fd5b845467ffffffffffffffff1916600117855583156110ee57845468ff00000000000000001916680100000000000000001785555b6001600160a01b0386166111445760405162461bcd60e51b815260206004820152601a60248201527f496e76616c6964206355534420746f6b656e20616464726573730000000000006044820152606401610233565b60008054336001600160a01b031991821617909155600180549091166001600160a01b03881617905583156111b857845468ff000000000000000019168555604051600181527fc7f505b2f371ae2175ee4913f4499e1f2633a7b5936321eed1cdaeb6115181d29060200160405180910390a15b505050505050565b6111c86112ab565b6001546040516001600160a01b03909116906323b872dd9033906002906111f09087906115e7565b908152604051908190036020018120546001600160e01b031960e085901b1682526001600160a01b039283166004830152919091166024820152604481018490526064016020604051808303816000875af1158015611253573d6000803e3d6000fd5b505050506040513d601f19601f820116820180604052508101906112779190611603565b507f17c364965a637c779007573304a4c8885e05750cf1997f7d4accf4a7ca1186ed823383604051610ff1939291906118cf565b7f9b779b17422d0df92223018b32b4d1fa46e071723d6817e2486d003becc55f008054600119016112ef57604051633ee5aeb560e01b815260040160405180910390fd5b60029055565b634e487b7160e01b600052604160045260246000fd5b600082601f83011261131c57600080fd5b813567ffffffffffffffff80821115611337576113376112f5565b604051601f8301601f19908116603f0116810190828211818310171561135f5761135f6112f5565b8160405283815286602085880101111561137857600080fd5b836020870160208301376000602085830101528094505050505092915050565b6000602082840312156113aa57600080fd5b813567ffffffffffffffff8111156113c157600080fd5b6113cd8482850161130b565b949350505050565b60005b838110156113f05781810151838201526020016113d8565b50506000910152565b600081518084526114118160208601602086016113d5565b601f01601f19169290920160200192915050565b60c08152600061143860c08301896113f9565b828103602084015261144a81896113f9565b6001600160a01b039788166040850152959096166060830152506080810192909252151560a0909101529392505050565b6001600160a01b038516815260806020820152600061149d60808301866113f9565b60408301949094525090151560609091015292915050565b80356001600160a01b03811681146114cc57600080fd5b919050565b600080600080600060a086880312156114e957600080fd5b853567ffffffffffffffff8082111561150157600080fd5b61150d89838a0161130b565b9650602088013591508082111561152357600080fd5b506115308882890161130b565b94505061153f604087016114b5565b925061154d606087016114b5565b949793965091946080013592915050565b6001600160a01b03831681526040602082015260006113cd60408301846113f9565b6000806040838503121561159357600080fd5b823567ffffffffffffffff8111156115aa57600080fd5b6115b68582860161130b565b95602094909401359450505050565b6000602082840312156115d757600080fd5b6115e0826114b5565b9392505050565b600082516115f98184602087016113d5565b9190910192915050565b60006020828403121561161557600080fd5b815180151581146115e057600080fd5b60808152600061163860808301876113f9565b6001600160a01b039590951660208301525060408101929092521515606090910152919050565b600181811c9082168061167357607f821691505b60208210810361169357634e487b7160e01b600052602260045260246000fd5b50919050565b6000602082840312156116ab57600080fd5b5051919050565b601f8211156116f857600081815260208120601f850160051c810160208610156116d95750805b601f850160051c820191505b818110156111b8578281556001016116e5565b505050565b815167ffffffffffffffff811115611717576117176112f5565b61172b81611725845461165f565b846116b2565b602080601f83116001811461176057600084156117485750858301515b600019600386901b1c1916600185901b1785556111b8565b600085815260208120601f198616915b8281101561178f57888601518255948401946001909101908401611770565b50858210156117ad5787850151600019600388901b60f8161c191681555b5050505050600190811b01905550565b6040815260006117d060408301856113f9565b90506001600160a01b03831660208301529392505050565b808202811582820484141761180d57634e487b7160e01b600052601160045260246000fd5b92915050565b60008261183057634e487b7160e01b600052601260045260246000fd5b500490565b6060815260008085546118478161165f565b80606086015260806001808416600081146118695760018114611883576118b4565b60ff1985168884015283151560051b8801830195506118b4565b8a60005260208060002060005b868110156118ab5781548b8201870152908401908201611890565b8a018501975050505b505050505060208301859052831515604084015290506113cd565b6060815260006118e260608301866113f9565b6001600160a01b03949094166020830152506040015291905056fea164736f6c6343000814000a",
  "linkReferences": {},
  "deployedLinkReferences": {}
}