{
  "_format": "hh-sol-artifact-1",
  "contractName": "PayLink",
  "sourceName": "contracts/PayLink.sol",
  "abi": [
    {
      "inputs": [],
      "name": "InvalidInitialization",
      "type": "error"
    },
    {
      "inputs": [],
      "name": "NotInitializing",
      "type": "error"
    },
    {
      "inputs": [],
      "name": "ReentrancyGuardReentrantCall",
      "type": "error"
    },
    {
      "anonymous": false,
      "inputs": [
        {
          "indexed": false,
          "internalType": "string",
          "name": "link",
          "type": "string"
        },
        {
          "indexed": false,
          "internalType": "address",
          "name": "contributor",
          "type": "address"
        },
        {
          "indexed": false,
          "internalType": "uint256",
          "name": "amount",
          "type": "uint256"
        }
      ],
      "name": "ContributionAdded",
      "type": "event"
    },
    {
      "anonymous": false,
      "inputs": [
        {
          "indexed": false,
          "internalType": "string",
          "name": "link",
          "type": "string"
        },
        {
          "indexed": false,
          "internalType": "address",
          "name": "creator",
          "type": "address"
        },
        {
          "indexed": false,
          "internalType": "uint256",
          "name": "amount",
          "type": "uint256"
        },
        {
          "indexed": false,
          "internalType": "enum PayLink.statusEnum",
          "name": "status",
          "type": "uint8"
        }
      ],
      "name": "FixedPaymentLinkCreated",
      "type": "event"
    },
    {
      "anonymous": false,
      "inputs": [
        {
          "indexed": false,
          "internalType": "string",
          "name": "link",
          "type": "string"
        },
        {
          "indexed": false,
          "internalType": "address",
          "name": "creator",
          "type": "address"
        }
      ],
      "name": "GlobalPaymentLinkCreated",
      "type": "event"
    },
    {
      "anonymous": false,
      "inputs": [
        {
          "indexed": false,
          "internalType": "uint64",
          "name": "version",
          "type": "uint64"
        }
      ],
      "name": "Initialized",
      "type": "event"
    },
    {
      "anonymous": false,
      "inputs": [
        {
          "indexed": false,
          "internalType": "string",
          "name": "invoiceId",
          "type": "string"
        },
        {
          "indexed": false,
          "internalType": "string",
          "name": "productId",
          "type": "string"
        },
        {
          "indexed": false,
          "internalType": "address",
          "name": "from",
          "type": "address"
        },
        {
          "indexed": false,
          "internalType": "address",
          "name": "client",
          "type": "address"
        },
        {
          "indexed": false,
          "internalType": "uint256",
          "name": "amount",
          "type": "uint256"
        },
        {
          "indexed": false,
          "internalType": "enum PayLink.statusEnum",
          "name": "status",
          "type": "uint8"
        }
      ],
      "name": "InvoiceCreated",
      "type": "event"
    },
    {
      "anonymous": false,
      "inputs": [
        {
          "indexed": false,
          "internalType": "string",
          "name": "link",
          "type": "string"
        },
        {
          "indexed": false,
          "internalType": "address",
          "name": "client",
          "type": "address"
        },
        {
          "indexed": false,
          "internalType": "uint256",
          "name": "amount",
          "type": "uint256"
        },
        {
          "indexed": false,
          "internalType": "enum PayLink.statusEnum",
          "name": "status",
          "type": "uint8"
        }
      ],
      "name": "PaidFixedPayment",
      "type": "event"
    },
    {
      "anonymous": false,
      "inputs": [
        {
          "indexed": false,
          "internalType": "string",
          "name": "invoiceId",
          "type": "string"
        },
        {
          "indexed": false,
          "internalType": "uint256",
          "name": "amount",
          "type": "uint256"
        },
        {
          "indexed": false,
          "internalType": "enum PayLink.statusEnum",
          "name": "status",
          "type": "uint8"
        }
      ],
      "name": "PaidInvoice",
      "type": "event"
    },
    {
      "inputs": [
        {
          "internalType": "string",
          "name": "linkID",
          "type": "string"
        },
        {
          "internalType": "uint256",
          "name": "_amount",
          "type": "uint256"
        }
      ],
      "name": "contributeToGlobalPaymentLink",
      "outputs": [],
      "stateMutability": "nonpayable",
      "type": "function"
    },
    {
      "inputs": [
        {
          "internalType": "string",
          "name": "linkID",
          "type": "string"
        },
        {
          "internalType": "uint256",
          "name": "_amount",
          "type": "uint256"
        }
      ],
      "name": "createFixedPaymentLink",
      "outputs": [],
      "stateMutability": "nonpayable",
      "type": "function"
    },
    {
      "inputs": [
        {
          "internalType": "string",
          "name": "linkID",
          "type": "string"
        }
      ],
      "name": "createGlobalPaymentLink",
      "outputs": [],
      "stateMutability": "nonpayable",
      "type": "function"
    },
    {
      "inputs": [
        {
          "internalType": "string",
          "name": "_invoiceId",
          "type": "string"
        },
        {
          "internalType": "string",
          "name": "_productId",
          "type": "string"
        },
        {
          "internalType": "address",
          "name": "_from",
          "type": "address"
        },
        {
          "internalType": "address",
          "name": "_client",
          "type": "address"
        },
        {
          "internalType": "uint256",
          "name": "_amount",
          "type": "uint256"
        }
      ],
      "name": "createInvoice",
      "outputs": [],
      "stateMutability": "nonpayable",
      "type": "function"
    },
    {
      "inputs": [
        {
          "internalType": "string",
          "name": "",
          "type": "string"
        }
      ],
      "name": "fixedPaymentLink",
      "outputs": [
        {
          "internalType": "address",
          "name": "creator",
          "type": "address"
        },
        {
          "internalType": "string",
          "name": "link",
          "type": "string"
        },
        {
          "internalType": "uint256",
          "name": "amount",
          "type": "uint256"
        },
        {
          "internalType": "enum PayLink.statusEnum",
          "name": "status",
          "type": "uint8"
        }
      ],
      "stateMutability": "view",
      "type": "function"
    },
    {
      "inputs": [
        {
          "internalType": "string",
          "name": "",
          "type": "string"
        }
      ],
      "name": "fixedinkIDExist",
      "outputs": [
        {
          "internalType": "bool",
          "name": "",
          "type": "bool"
        }
      ],
      "stateMutability": "view",
      "type": "function"
    },
    {
      "inputs": [],
      "name": "globalLinkFee",
      "outputs": [
        {
          "internalType": "uint256",
          "name": "",
          "type": "uint256"
        }
      ],
      "stateMutability": "view",
      "type": "function"
    },
    {
      "inputs": [
        {
          "internalType": "string",
          "name": "",
          "type": "string"
        }
      ],
      "name": "globalPaymentLink",
      "outputs": [
        {
          "internalType": "address",
          "name": "creator",
          "type": "address"
        },
        {
          "internalType": "string",
          "name": "link",
          "type": "string"
        }
      ],
      "stateMutability": "view",
      "type": "function"
    },
    {
      "inputs": [
        {
          "internalType": "string",
          "name": "",
          "type": "string"
        }
      ],
      "name": "globalinkIDExist",
      "outputs": [
        {
          "internalType": "bool",
          "name": "",
          "type": "bool"
        }
      ],
      "stateMutability": "view",
      "type": "function"
    },
    {
      "inputs": [
        {
          "internalType": "address",
          "name": "_cUsdTokenAddress",
          "type": "address"
        }
      ],
      "name": "initialize",
      "outputs": [],
      "stateMutability": "nonpayable",
      "type": "function"
    },
    {
      "inputs": [
        {
          "internalType": "string",
          "name": "",
          "type": "string"
        }
      ],
      "name": "invoice",
      "outputs": [
        {
          "internalType": "string",
          "name": "invoiceId",
          "type": "string"
        },
        {
          "internalType": "string",
          "name": "productId",
          "type": "string"
        },
        {
          "internalType": "address",
          "name": "from",
          "type": "address"
        },
        {
          "internalType": "address",
          "name": "client",
          "type": "address"
        },
        {
          "internalType": "uint256",
          "name": "amount",
          "type": "uint256"
        },
        {
          "internalType": "enum PayLink.statusEnum",
          "name": "status",
          "type": "uint8"
        }
      ],
      "stateMutability": "view",
      "type": "function"
    },
    {
      "inputs": [
        {
          "internalType": "string",
          "name": "",
          "type": "string"
        }
      ],
      "name": "invoiceIdExist",
      "outputs": [
        {
          "internalType": "bool",
          "name": "",
          "type": "bool"
        }
      ],
      "stateMutability": "view",
      "type": "function"
    },
    {
      "inputs": [
        {
          "internalType": "string",
          "name": "linkID",
          "type": "string"
        }
      ],
      "name": "payFixedPaymentLink",
      "outputs": [],
      "stateMutability": "nonpayable",
      "type": "function"
    },
    {
      "inputs": [
        {
          "internalType": "string",
          "name": "_invoiceId",
          "type": "string"
        }
      ],
      "name": "payInvoice",
      "outputs": [],
      "stateMutability": "nonpayable",
      "type": "function"
    },
    {
      "inputs": [
        {
          "internalType": "uint256",
          "name": "_globalLinkFee",
          "type": "uint256"
        }
      ],
      "name": "setGlobalLinkFee",
      "outputs": [],
      "stateMutability": "nonpayable",
      "type": "function"
    }
  ],
  "bytecode": "0x6080604052671bc16d674ec8000060025534801561001c57600080fd5b50611e4f8061002c6000396000f3fe608060405234801561001057600080fd5b50600436106100f55760003560e01c80633e20ca55116100975780637ef09744116100665780637ef097441461024c578063c4d66de81461025f578063d6d885a514610272578063e7d92eb2146102a057600080fd5b80633e20ca55146101d7578063456eec47146101ea5780636270fc891461020b5780637c9495b21461023957600080fd5b80630f14ed70116100d35780630f14ed701461013e57806319ab427814610163578063359095c31461017657806338377eaa1461019957600080fd5b806307f35bb9146100fa5780630804d5ad1461010f5780630cb53ec814610122575b600080fd5b61010d6101083660046117dd565b6102b3565b005b61010d61011d366004611899565b610357565b61012b60025481565b6040519081526020015b60405180910390f35b61015161014c366004611899565b610610565b6040516101359695949392919061195e565b61010d610171366004611899565b610771565b610189610184366004611899565b6109e4565b60405161013594939291906119bd565b6101c76101a7366004611899565b805160208183018101805160088252928201919093012091525460ff1681565b6040519015158152602001610135565b61010d6101e5366004611a19565b610aae565b6101fd6101f8366004611899565b610e2d565b604051610135929190611aa6565b6101c7610219366004611899565b805160208183018101805160078252928201919093012091525460ff1681565b61010d610247366004611899565b610ee7565b61010d61025a366004611ac8565b6111a1565b61010d61026d366004611b0d565b6114a9565b6101c7610280366004611899565b805160208183018101805160068252928201919093012091525460ff1681565b61010d6102ae366004611ac8565b611643565b6102bb611793565b6000546001600160a01b031633146103265760405162461bcd60e51b8152602060048201526024808201527f4f6e6c79206465706c6f7965722063616e2063616c6c20746869732066756e636044820152633a34b7b760e11b60648201526084015b60405180910390fd5b600281905561035460017f9b779b17422d0df92223018b32b4d1fa46e071723d6817e2486d003becc55f0055565b50565b61035f611793565b60016004826040516103719190611b2f565b9081526040519081900360200190206003015460ff16600181111561039857610398611926565b036103e55760405162461bcd60e51b815260206004820152601160248201527f4c696e6b20616c72656164792070616964000000000000000000000000000000604482015260640161031d565b6007816040516103f59190611b2f565b9081526040519081900360200190205460ff1661044a5760405162461bcd60e51b8152602060048201526013602482015272131a5b9ac8191bd95cc81b9bdd08195e1a5cdd606a1b604482015260640161031d565b600160048260405161045c9190611b2f565b908152604051908190036020019020600301805460ff19166001838181111561048757610487611926565b02179055506001546040516001600160a01b03909116906323b872dd9033906004906104b4908690611b2f565b908152604051908190036020018120546001600160a01b0316906004906104dc908790611b2f565b908152604051908190036020018120600201546001600160e01b031960e086901b1682526001600160a01b03938416600483015291909216602483015260448201526064016020604051808303816000875af1158015610540573d6000803e3d6000fd5b505050506040513d601f19601f820116820180604052508101906105649190611b4b565b507f99b7a4d59b9dd449c0c916b95058015e77449dacbb95237b0f6a2e3fdd50996781336004846040516105989190611b2f565b9081526020016040518091039020600201546004856040516105ba9190611b2f565b908152604051908190036020018120600301546105df9493929160ff90911690611b6d565b60405180910390a161035460017f9b779b17422d0df92223018b32b4d1fa46e071723d6817e2486d003becc55f0055565b805160208183018101805160058252928201919093012091528054819061063690611ba4565b80601f016020809104026020016040519081016040528092919081815260200182805461066290611ba4565b80156106af5780601f10610684576101008083540402835291602001916106af565b820191906000526020600020905b81548152906001019060200180831161069257829003601f168201915b5050505050908060010180546106c490611ba4565b80601f01602080910402602001604051908101604052809291908181526020018280546106f090611ba4565b801561073d5780601f106107125761010080835404028352916020019161073d565b820191906000526020600020905b81548152906001019060200180831161072057829003601f168201915b5050505060028301546003840154600485015460059095015493946001600160a01b03928316949290911692509060ff1686565b610779611793565b6002546001546040516370a0823160e01b81523360048201526001600160a01b03909116906370a0823190602401602060405180830381865afa1580156107c4573d6000803e3d6000fd5b505050506040513d601f19601f820116820180604052508101906107e89190611bde565b101561082d5760405162461bcd60e51b8152602060048201526014602482015273496e73756666696369656e742042616c616e636560601b604482015260640161031d565b60068160405161083d9190611b2f565b9081526040519081900360200190205460ff161561089d5760405162461bcd60e51b815260206004820152601860248201527f476c6f62616c206c696e6b204944206e6f742065786973740000000000000000604482015260640161031d565b60016006826040516108af9190611b2f565b9081526040805160209281900383018120805460ff1916941515949094179093558281018152338352908201839052516003906108ed908490611b2f565b90815260405160209181900382019020825181546001600160a01b0319166001600160a01b0390911617815590820151600182019061092c9082611c42565b50506001546000546002546040516323b872dd60e01b81523360048201526001600160a01b0392831660248201526044810191909152911691506323b872dd906064016020604051808303816000875af115801561098e573d6000803e3d6000fd5b505050506040513d601f19601f820116820180604052508101906109b29190611b4b565b507fce358a18d026c2c06cc766e26b6c6bc050ab5c949ad908f1cb4612573b7720a481336040516105df929190611d02565b8051602081830181018051600482529282019190930120915280546001820180546001600160a01b039092169291610a1b90611ba4565b80601f0160208091040260200160405190810160405280929190818152602001828054610a4790611ba4565b8015610a945780601f10610a6957610100808354040283529160200191610a94565b820191906000526020600020905b815481529060010190602001808311610a7757829003601f168201915b50505050600283015460039093015491929160ff16905084565b610ab6611793565b6001546040516370a0823160e01b81523360048201526000916001600160a01b0316906370a0823190602401602060405180830381865afa158015610aff573d6000803e3d6000fd5b505050506040513d601f19601f82011682018060405250810190610b239190611bde565b1015610b685760405162461bcd60e51b8152602060048201526014602482015273496e73756666696369656e742042616c616e636560601b604482015260640161031d565b600885604051610b789190611b2f565b9081526040519081900360200190205460ff1615610bd85760405162461bcd60e51b815260206004820152601960248201527f5f696e766f696365496420616c72656164792065786973747300000000000000604482015260640161031d565b6001600886604051610bea9190611b2f565b908152602001604051809103902060006101000a81548160ff0219169083151502179055506040518060c00160405280868152602001858152602001846001600160a01b03168152602001836001600160a01b0316815260200182815260200160006001811115610c5d57610c5d611926565b815250600586604051610c709190611b2f565b90815260405190819003602001902081518190610c8d9082611c42565b5060208201516001820190610ca29082611c42565b5060408201516002820180546001600160a01b039283166001600160a01b03199182161790915560608401516003840180549190931691161790556080820151600482015560a082015160058201805460ff191660018381811115610d0957610d09611926565b0217905550506001546000546001600160a01b0391821692506323b872dd913391166064610d38866005611d2d565b610d429190611d58565b6040516001600160e01b031960e086901b1681526001600160a01b03938416600482015292909116602483015260448201526064016020604051808303816000875af1158015610d96573d6000803e3d6000fd5b505050506040513d601f19601f82011682018060405250810190610dba9190611b4b565b507f1c915b21e92b0eae669f6d8cb0fc61e6d940321c3a060ecf32735d68974910a985858585856000604051610df59695949392919061195e565b60405180910390a1610e2660017f9b779b17422d0df92223018b32b4d1fa46e071723d6817e2486d003becc55f0055565b5050505050565b8051602081830181018051600382529282019190930120915280546001820180546001600160a01b039092169291610e6490611ba4565b80601f0160208091040260200160405190810160405280929190818152602001828054610e9090611ba4565b8015610edd5780601f10610eb257610100808354040283529160200191610edd565b820191906000526020600020905b815481529060010190602001808311610ec057829003601f168201915b5050505050905082565b610eef611793565b6000600582604051610f019190611b2f565b9081526040519081900360200190206005015460ff166001811115610f2857610f28611926565b03610f755760405162461bcd60e51b815260206004820152601460248201527f496e766f69636520616c72656164792070616964000000000000000000000000604482015260640161031d565b600881604051610f859190611b2f565b9081526040519081900360200190205460ff16610fe45760405162461bcd60e51b815260206004820152601960248201527f496e766f69636520696420646f6573206e6f7420657869737400000000000000604482015260640161031d565b6001600582604051610ff69190611b2f565b908152604051908190036020019020600501805460ff19166001838181111561102157611021611926565b02179055506001546040516001600160a01b03909116906323b872dd90339060059061104e908690611b2f565b908152604051908190036020018120600201546001600160a01b031690600590611079908790611b2f565b9081526020016040518091039020600401546040518463ffffffff1660e01b81526004016110c8939291906001600160a01b039384168152919092166020820152604081019190915260600190565b6020604051808303816000875af11580156110e7573d6000803e3d6000fd5b505050506040513d601f19601f8201168201806040525081019061110b9190611b4b565b507f42ad2b419f43c1cdc335d14cd783d8519b93acd31c3cc7810e122e160109a8d460058260405161113d9190611b2f565b9081526040519081900360200181209060059061115b908590611b2f565b90815260200160405180910390206004015460058460405161117d9190611b2f565b908152604051908190036020018120600501546105df93929160ff90911690611d7a565b6111a9611793565b6001546040516370a0823160e01b815233600482015282916001600160a01b0316906370a0823190602401602060405180830381865afa1580156111f1573d6000803e3d6000fd5b505050506040513d601f19601f820116820180604052508101906112159190611bde565b101561125a5760405162461bcd60e51b8152602060048201526014602482015273496e73756666696369656e742042616c616e636560601b604482015260640161031d565b60078260405161126a9190611b2f565b9081526040519081900360200190205460ff16156112c05760405162461bcd60e51b8152602060048201526013602482015272131a5b9ac8191bd95cc81b9bdd08195e1a5cdd606a1b604482015260640161031d565b60016007836040516112d29190611b2f565b9081526040805160209281900383018120805460ff19169415159490941790935560808301815233835290820184905281018290526060810160008152506004836040516113209190611b2f565b90815260405160209181900382019020825181546001600160a01b0319166001600160a01b0390911617815590820151600182019061135f9082611c42565b5060408201516002820155606082015160038201805460ff19166001838181111561138c5761138c611926565b0217905550506001546000546001600160a01b0391821692506323b872dd9133911660646113bb866005611d2d565b6113c59190611d58565b6040516001600160e01b031960e086901b1681526001600160a01b03938416600482015292909116602483015260448201526064016020604051808303816000875af1158015611419573d6000803e3d6000fd5b505050506040513d601f19601f8201168201806040525081019061143d9190611b4b565b507fd3ea4d18eccc04b1315190479ad5db5e0ca5d90dad2ee6ecfa423c75bd4f7e0682338360006040516114749493929190611b6d565b60405180910390a16114a560017f9b779b17422d0df92223018b32b4d1fa46e071723d6817e2486d003becc55f0055565b5050565b7ff0c57e16840df040f15088dc2f81fe391c3923bec73e23a9662efc9c229c6a00805468010000000000000000810460ff16159067ffffffffffffffff166000811580156114f45750825b905060008267ffffffffffffffff1660011480156115115750303b155b90508115801561151f575080155b1561153d5760405163f92ee8a960e01b815260040160405180910390fd5b845467ffffffffffffffff19166001178555831561157157845468ff00000000000000001916680100000000000000001785555b6001600160a01b0386166115c75760405162461bcd60e51b815260206004820152601a60248201527f496e76616c6964206355534420746f6b656e2061646472657373000000000000604482015260640161031d565b60008054336001600160a01b031991821617909155600180549091166001600160a01b038816179055831561163b57845468ff000000000000000019168555604051600181527fc7f505b2f371ae2175ee4913f4499e1f2633a7b5936321eed1cdaeb6115181d29060200160405180910390a15b505050505050565b61164b611793565b60068260405161165b9190611b2f565b9081526040519081900360200190205460ff166116b05760405162461bcd60e51b8152602060048201526013602482015272131a5b9ac8191bd95cc81b9bdd08195e1a5cdd606a1b604482015260640161031d565b6001546040516001600160a01b03909116906323b872dd9033906003906116d8908790611b2f565b908152604051908190036020018120546001600160e01b031960e085901b1682526001600160a01b039283166004830152919091166024820152604481018490526064016020604051808303816000875af115801561173b573d6000803e3d6000fd5b505050506040513d601f19601f8201168201806040525081019061175f9190611b4b565b507f17c364965a637c779007573304a4c8885e05750cf1997f7d4accf4a7ca1186ed82338360405161147493929190611e14565b7f9b779b17422d0df92223018b32b4d1fa46e071723d6817e2486d003becc55f008054600119016117d757604051633ee5aeb560e01b815260040160405180910390fd5b60029055565b6000602082840312156117ef57600080fd5b5035919050565b634e487b7160e01b600052604160045260246000fd5b600082601f83011261181d57600080fd5b813567ffffffffffffffff80821115611838576118386117f6565b604051601f8301601f19908116603f01168101908282118183101715611860576118606117f6565b8160405283815286602085880101111561187957600080fd5b836020870160208301376000602085830101528094505050505092915050565b6000602082840312156118ab57600080fd5b813567ffffffffffffffff8111156118c257600080fd5b6118ce8482850161180c565b949350505050565b60005b838110156118f15781810151838201526020016118d9565b50506000910152565b600081518084526119128160208601602086016118d6565b601f01601f19169290920160200192915050565b634e487b7160e01b600052602160045260246000fd5b6002811061195a57634e487b7160e01b600052602160045260246000fd5b9052565b60c08152600061197160c08301896118fa565b828103602084015261198381896118fa565b9150506001600160a01b0380871660408401528086166060840152508360808301526119b260a083018461193c565b979650505050505050565b6001600160a01b03851681526080602082015260006119df60808301866118fa565b90508360408301526119f4606083018461193c565b95945050505050565b80356001600160a01b0381168114611a1457600080fd5b919050565b600080600080600060a08688031215611a3157600080fd5b853567ffffffffffffffff80821115611a4957600080fd5b611a5589838a0161180c565b96506020880135915080821115611a6b57600080fd5b50611a788882890161180c565b945050611a87604087016119fd565b9250611a95606087016119fd565b949793965091946080013592915050565b6001600160a01b03831681526040602082015260006118ce60408301846118fa565b60008060408385031215611adb57600080fd5b823567ffffffffffffffff811115611af257600080fd5b611afe8582860161180c565b95602094909401359450505050565b600060208284031215611b1f57600080fd5b611b28826119fd565b9392505050565b60008251611b418184602087016118d6565b9190910192915050565b600060208284031215611b5d57600080fd5b81518015158114611b2857600080fd5b608081526000611b8060808301876118fa565b90506001600160a01b03851660208301528360408301526119f4606083018461193c565b600181811c90821680611bb857607f821691505b602082108103611bd857634e487b7160e01b600052602260045260246000fd5b50919050565b600060208284031215611bf057600080fd5b5051919050565b601f821115611c3d57600081815260208120601f850160051c81016020861015611c1e5750805b601f850160051c820191505b8181101561163b57828155600101611c2a565b505050565b815167ffffffffffffffff811115611c5c57611c5c6117f6565b611c7081611c6a8454611ba4565b84611bf7565b602080601f831160018114611ca55760008415611c8d5750858301515b600019600386901b1c1916600185901b17855561163b565b600085815260208120601f198616915b82811015611cd457888601518255948401946001909101908401611cb5565b5085821015611cf25787850151600019600388901b60f8161c191681555b5050505050600190811b01905550565b604081526000611d1560408301856118fa565b90506001600160a01b03831660208301529392505050565b8082028115828204841417611d5257634e487b7160e01b600052601160045260246000fd5b92915050565b600082611d7557634e487b7160e01b600052601260045260246000fd5b500490565b606081526000808554611d8c81611ba4565b8060608601526080600180841660008114611dae5760018114611dc857611df9565b60ff1985168884015283151560051b880183019550611df9565b8a60005260208060002060005b86811015611df05781548b8201870152908401908201611dd5565b8a018501975050505b50505050506020830185905290506118ce604083018461193c565b606081526000611e2760608301866118fa565b6001600160a01b03949094166020830152506040015291905056fea164736f6c6343000814000a",
  "linkReferences": {},
  "deployedLinkReferences": {}
}